{
  "_format": "hh-sol-artifact-1",
  "contractName": "NFTMarketplace",
  "sourceName": "contracts/NFTMarketplace.sol",
  "abi": [
    {
      "anonymous": false,
      "inputs": [
        {
          "indexed": false,
          "internalType": "address",
          "name": "nftAddress",
          "type": "address"
        },
        {
          "indexed": false,
          "internalType": "uint256",
          "name": "tokenId",
          "type": "uint256"
        },
        {
          "indexed": false,
          "internalType": "address",
          "name": "seller",
          "type": "address"
        }
      ],
      "name": "ListingCanceled",
      "type": "event"
    },
    {
      "anonymous": false,
      "inputs": [
        {
          "indexed": false,
          "internalType": "address",
          "name": "nftAddress",
          "type": "address"
        },
        {
          "indexed": false,
          "internalType": "uint256",
          "name": "tokenId",
          "type": "uint256"
        },
        {
          "indexed": false,
          "internalType": "uint256",
          "name": "price",
          "type": "uint256"
        },
        {
          "indexed": false,
          "internalType": "address",
          "name": "seller",
          "type": "address"
        }
      ],
      "name": "ListingCreated",
      "type": "event"
    },
    {
      "anonymous": false,
      "inputs": [
        {
          "indexed": false,
          "internalType": "address",
          "name": "nftAddress",
          "type": "address"
        },
        {
          "indexed": false,
          "internalType": "uint256",
          "name": "tokenId",
          "type": "uint256"
        },
        {
          "indexed": false,
          "internalType": "address",
          "name": "seller",
          "type": "address"
        },
        {
          "indexed": false,
          "internalType": "address",
          "name": "buyer",
          "type": "address"
        }
      ],
      "name": "ListingPurchased",
      "type": "event"
    },
    {
      "anonymous": false,
      "inputs": [
        {
          "indexed": false,
          "internalType": "address",
          "name": "nftAddress",
          "type": "address"
        },
        {
          "indexed": false,
          "internalType": "uint256",
          "name": "tokenId",
          "type": "uint256"
        },
        {
          "indexed": false,
          "internalType": "uint256",
          "name": "newPrice",
          "type": "uint256"
        },
        {
          "indexed": false,
          "internalType": "address",
          "name": "seller",
          "type": "address"
        }
      ],
      "name": "ListingUpdated",
      "type": "event"
    },
    {
      "inputs": [
        {
          "internalType": "address",
          "name": "nftAddress",
          "type": "address"
        },
        {
          "internalType": "uint256",
          "name": "tokenId",
          "type": "uint256"
        }
      ],
      "name": "cancelListing",
      "outputs": [],
      "stateMutability": "nonpayable",
      "type": "function"
    },
    {
      "inputs": [
        {
          "internalType": "address",
          "name": "nftAddress",
          "type": "address"
        },
        {
          "internalType": "uint256",
          "name": "tokenId",
          "type": "uint256"
        },
        {
          "internalType": "uint256",
          "name": "price",
          "type": "uint256"
        }
      ],
      "name": "createListing",
      "outputs": [],
      "stateMutability": "nonpayable",
      "type": "function"
    },
    {
      "inputs": [
        {
          "internalType": "address",
          "name": "",
          "type": "address"
        },
        {
          "internalType": "uint256",
          "name": "",
          "type": "uint256"
        }
      ],
      "name": "listings",
      "outputs": [
        {
          "internalType": "uint256",
          "name": "price",
          "type": "uint256"
        },
        {
          "internalType": "address",
          "name": "seller",
          "type": "address"
        }
      ],
      "stateMutability": "view",
      "type": "function"
    },
    {
      "inputs": [
        {
          "internalType": "address",
          "name": "nftAddress",
          "type": "address"
        },
        {
          "internalType": "uint256",
          "name": "tokenId",
          "type": "uint256"
        }
      ],
      "name": "purchaseListing",
      "outputs": [],
      "stateMutability": "payable",
      "type": "function"
    },
    {
      "inputs": [
        {
          "internalType": "address",
          "name": "nftAddress",
          "type": "address"
        },
        {
          "internalType": "uint256",
          "name": "tokenId",
          "type": "uint256"
        },
        {
          "internalType": "uint256",
          "name": "newPrice",
          "type": "uint256"
        }
      ],
      "name": "updateListing",
      "outputs": [],
      "stateMutability": "nonpayable",
      "type": "function"
    }
  ],
  "bytecode": "0x608060405234801561001057600080fd5b506112c0806100206000396000f3fe6080604052600436106100495760003560e01c806207df301461004e57806324780c561461008c578063a7fc91b9146100b5578063b2ddee06146100d1578063f772adf1146100fa575b600080fd5b34801561005a57600080fd5b5061007560048036038101906100709190610da2565b610123565b6040516100839291906110f0565b60405180910390f35b34801561009857600080fd5b506100b360048036038101906100ae9190610dde565b610174565b005b6100cf60048036038101906100ca9190610da2565b610556565b005b3480156100dd57600080fd5b506100f860048036038101906100f39190610da2565b610878565b005b34801561010657600080fd5b50610121600480360381019061011c9190610dde565b610acb565b005b6000602052816000526040600020602052806000526040600020600091509150508060000154908060010160009054906101000a900473ffffffffffffffffffffffffffffffffffffffff16905082565b828260008060008473ffffffffffffffffffffffffffffffffffffffff1673ffffffffffffffffffffffffffffffffffffffff1681526020019081526020016000206000838152602001908152602001600020600001541461020b576040517f08c379a000000000000000000000000000000000000000000000000000000000815260040161020290611015565b60405180910390fd5b84843373ffffffffffffffffffffffffffffffffffffffff168273ffffffffffffffffffffffffffffffffffffffff16636352211e836040518263ffffffff1660e01b815260040161025d91906110d5565b60206040518083038186803b15801561027557600080fd5b505afa158015610289573d6000803e3d6000fd5b505050506040513d601f19601f820116820180604052508101906102ad9190610d79565b73ffffffffffffffffffffffffffffffffffffffff1614610303576040517f08c379a00000000000000000000000000000000000000000000000000000000081526004016102fa90611075565b60405180910390fd5b60008511610346576040517f08c379a000000000000000000000000000000000000000000000000000000000815260040161033d90611055565b60405180910390fd5b60008790503073ffffffffffffffffffffffffffffffffffffffff168173ffffffffffffffffffffffffffffffffffffffff1663081812fc896040518263ffffffff1660e01b815260040161039b91906110d5565b60206040518083038186803b1580156103b357600080fd5b505afa1580156103c7573d6000803e3d6000fd5b505050506040513d601f19601f820116820180604052508101906103eb9190610d79565b73ffffffffffffffffffffffffffffffffffffffff1614610441576040517f08c379a0000000000000000000000000000000000000000000000000000000008152600401610438906110b5565b60405180910390fd5b60405180604001604052808781526020013373ffffffffffffffffffffffffffffffffffffffff168152506000808a73ffffffffffffffffffffffffffffffffffffffff1673ffffffffffffffffffffffffffffffffffffffff16815260200190815260200160002060008981526020019081526020016000206000820151816000015560208201518160010160006101000a81548173ffffffffffffffffffffffffffffffffffffffff021916908373ffffffffffffffffffffffffffffffffffffffff1602179055509050507fdc801191e0c92935648f61c8e3d0cd8eac1d060269ddb920487d02ab0be69e7d888888336040516105449493929190610fd0565b60405180910390a15050505050505050565b818160008060008473ffffffffffffffffffffffffffffffffffffffff1673ffffffffffffffffffffffffffffffffffffffff168152602001908152602001600020600083815260200190815260200160002060000154116105ed576040517f08c379a00000000000000000000000000000000000000000000000000000000081526004016105e490611035565b60405180910390fd5b60008060008673ffffffffffffffffffffffffffffffffffffffff1673ffffffffffffffffffffffffffffffffffffffff1681526020019081526020016000206000858152602001908152602001600020604051806040016040529081600082015481526020016001820160009054906101000a900473ffffffffffffffffffffffffffffffffffffffff1673ffffffffffffffffffffffffffffffffffffffff1673ffffffffffffffffffffffffffffffffffffffff16815250509050806000015134146106f1576040517f08c379a00000000000000000000000000000000000000000000000000000000081526004016106e890611095565b60405180910390fd5b6000808673ffffffffffffffffffffffffffffffffffffffff1673ffffffffffffffffffffffffffffffffffffffff16815260200190815260200160002060008581526020019081526020016000206000808201600090556001820160006101000a81549073ffffffffffffffffffffffffffffffffffffffff021916905550508473ffffffffffffffffffffffffffffffffffffffff166342842e0e826020015133876040518463ffffffff1660e01b81526004016107b393929190610f1d565b600060405180830381600087803b1580156107cd57600080fd5b505af11580156107e1573d6000803e3d6000fd5b50505050806020015173ffffffffffffffffffffffffffffffffffffffff166108fc349081150290604051600060405180830381858888f1935050505015801561082f573d6000803e3d6000fd5b507fab7369fca6913c40e2bf7144b586a1a0e894bd32f5f9e74128cd89fb54f7bf9485858360200151336040516108699493929190610f8b565b60405180910390a15050505050565b818160008060008473ffffffffffffffffffffffffffffffffffffffff1673ffffffffffffffffffffffffffffffffffffffff1681526020019081526020016000206000838152602001908152602001600020600001541161090f576040517f08c379a000000000000000000000000000000000000000000000000000000000815260040161090690611035565b60405180910390fd5b83833373ffffffffffffffffffffffffffffffffffffffff168273ffffffffffffffffffffffffffffffffffffffff16636352211e836040518263ffffffff1660e01b815260040161096191906110d5565b60206040518083038186803b15801561097957600080fd5b505afa15801561098d573d6000803e3d6000fd5b505050506040513d601f19601f820116820180604052508101906109b19190610d79565b73ffffffffffffffffffffffffffffffffffffffff1614610a07576040517f08c379a00000000000000000000000000000000000000000000000000000000081526004016109fe90611075565b60405180910390fd5b6000808773ffffffffffffffffffffffffffffffffffffffff1673ffffffffffffffffffffffffffffffffffffffff16815260200190815260200160002060008681526020019081526020016000206000808201600090556001820160006101000a81549073ffffffffffffffffffffffffffffffffffffffff021916905550507fcf45896873f759e6a8c2348e49ff9892b89458850ab6c70339e1c430227ce91d868633604051610abb93929190610f54565b60405180910390a1505050505050565b828260008060008473ffffffffffffffffffffffffffffffffffffffff1673ffffffffffffffffffffffffffffffffffffffff16815260200190815260200160002060008381526020019081526020016000206000015411610b62576040517f08c379a0000000000000000000000000000000000000000000000000000000008152600401610b5990611035565b60405180910390fd5b84843373ffffffffffffffffffffffffffffffffffffffff168273ffffffffffffffffffffffffffffffffffffffff16636352211e836040518263ffffffff1660e01b8152600401610bb491906110d5565b60206040518083038186803b158015610bcc57600080fd5b505afa158015610be0573d6000803e3d6000fd5b505050506040513d601f19601f82011682018060405250810190610c049190610d79565b73ffffffffffffffffffffffffffffffffffffffff1614610c5a576040517f08c379a0000000000000000000000000000000000000000000000000000000008152600401610c5190611075565b60405180910390fd5b60008511610c9d576040517f08c379a0000000000000000000000000000000000000000000000000000000008152600401610c9490611055565b60405180910390fd5b846000808973ffffffffffffffffffffffffffffffffffffffff1673ffffffffffffffffffffffffffffffffffffffff1681526020019081526020016000206000888152602001908152602001600020600001819055507f3199bfdff711ec1ab8ab8449dc3b8d3fa30a59861a734a9d26f7b1a38162df7587878733604051610d299493929190610fd0565b60405180910390a150505050505050565b600081359050610d498161125c565b92915050565b600081519050610d5e8161125c565b92915050565b600081359050610d7381611273565b92915050565b600060208284031215610d8b57600080fd5b6000610d9984828501610d4f565b91505092915050565b60008060408385031215610db557600080fd5b6000610dc385828601610d3a565b9250506020610dd485828601610d64565b9150509250929050565b600080600060608486031215610df357600080fd5b6000610e0186828701610d3a565b9350506020610e1286828701610d64565b9250506040610e2386828701610d64565b9150509250925092565b610e368161112a565b82525050565b6000610e49601483611119565b9150610e5482611166565b602082019050919050565b6000610e6c601083611119565b9150610e778261118f565b602082019050919050565b6000610e8f601783611119565b9150610e9a826111b8565b602082019050919050565b6000610eb2601383611119565b9150610ebd826111e1565b602082019050919050565b6000610ed5601c83611119565b9150610ee08261120a565b602082019050919050565b6000610ef8601983611119565b9150610f0382611233565b602082019050919050565b610f178161115c565b82525050565b6000606082019050610f326000830186610e2d565b610f3f6020830185610e2d565b610f4c6040830184610f0e565b949350505050565b6000606082019050610f696000830186610e2d565b610f766020830185610f0e565b610f836040830184610e2d565b949350505050565b6000608082019050610fa06000830187610e2d565b610fad6020830186610f0e565b610fba6040830185610e2d565b610fc76060830184610e2d565b95945050505050565b6000608082019050610fe56000830187610e2d565b610ff26020830186610f0e565b610fff6040830185610f0e565b61100c6060830184610e2d565b95945050505050565b6000602082019050818103600083015261102e81610e3c565b9050919050565b6000602082019050818103600083015261104e81610e5f565b9050919050565b6000602082019050818103600083015261106e81610e82565b9050919050565b6000602082019050818103600083015261108e81610ea5565b9050919050565b600060208201905081810360008301526110ae81610ec8565b9050919050565b600060208201905081810360008301526110ce81610eeb565b9050919050565b60006020820190506110ea6000830184610f0e565b92915050565b60006040820190506111056000830185610f0e565b6111126020830184610e2d565b9392505050565b600082825260208201905092915050565b60006111358261113c565b9050919050565b600073ffffffffffffffffffffffffffffffffffffffff82169050919050565b6000819050919050565b7f4d524b543a20416c7265616479206c6973746564000000000000000000000000600082015250565b7f4d524b543a204e6f74206c697374656400000000000000000000000000000000600082015250565b7f4d524b543a205072696365206d757374206265203e2030000000000000000000600082015250565b7f4d524b543a204e6f7420746865206f776e657200000000000000000000000000600082015250565b7f4d524b543a20496e636f72726563742045544820737570706c69656400000000600082015250565b7f4d524b543a204e6f20617070726f76616c20666f72204e465400000000000000600082015250565b6112658161112a565b811461127057600080fd5b50565b61127c8161115c565b811461128757600080fd5b5056fea2646970667358221220f8911fe996328292de263d56888b0403eb0a7af47a6046a38d7b83ea71d5485364736f6c63430008040033",
  "linkReferences": {},
  "deployedLinkReferences": {}
}